{
  "contractName": "DiplomaStore",
  "abi": [
    {
      "anonymous": false,
      "inputs": [
        {
          "indexed": true,
          "internalType": "address",
          "name": "_university",
          "type": "address"
        },
        {
          "indexed": false,
          "internalType": "string",
          "name": "_cnp",
          "type": "string"
        },
        {
          "indexed": false,
          "internalType": "string",
          "name": "_city",
          "type": "string"
        },
        {
          "indexed": false,
          "internalType": "string",
          "name": "_emailStudent",
          "type": "string"
        },
        {
          "indexed": false,
          "internalType": "string",
          "name": "_degree",
          "type": "string"
        },
        {
          "indexed": false,
          "internalType": "string",
          "name": "_hashValue",
          "type": "string"
        }
      ],
      "name": "LogDiplomaAdded",
      "type": "event"
    },
    {
      "anonymous": false,
      "inputs": [
        {
          "indexed": true,
          "internalType": "address",
          "name": "_university",
          "type": "address"
        },
        {
          "indexed": false,
          "internalType": "bool",
          "name": "_stop",
          "type": "bool"
        }
      ],
      "name": "LogEmergencyStop",
      "type": "event"
    },
    {
      "constant": true,
      "inputs": [
        {
          "internalType": "address",
          "name": "",
          "type": "address"
        },
        {
          "internalType": "uint256",
          "name": "",
          "type": "uint256"
        }
      ],
      "name": "university",
      "outputs": [
        {
          "internalType": "string",
          "name": "cnp",
          "type": "string"
        },
        {
          "internalType": "string",
          "name": "city",
          "type": "string"
        },
        {
          "internalType": "string",
          "name": "emailStudent",
          "type": "string"
        },
        {
          "internalType": "string",
          "name": "degree",
          "type": "string"
        },
        {
          "internalType": "string",
          "name": "hashValue",
          "type": "string"
        }
      ],
      "payable": false,
      "stateMutability": "view",
      "type": "function"
    },
    {
      "constant": false,
      "inputs": [
        {
          "internalType": "address",
          "name": "x",
          "type": "address"
        }
      ],
      "name": "toString",
      "outputs": [
        {
          "internalType": "string",
          "name": "",
          "type": "string"
        }
      ],
      "payable": false,
      "stateMutability": "nonpayable",
      "type": "function"
    },
    {
      "constant": false,
      "inputs": [
        {
          "internalType": "string",
          "name": "_cnp",
          "type": "string"
        },
        {
          "internalType": "string",
          "name": "_city",
          "type": "string"
        },
        {
          "internalType": "string",
          "name": "_emailStudent",
          "type": "string"
        },
        {
          "internalType": "string",
          "name": "_degree",
          "type": "string"
        },
        {
          "internalType": "string",
          "name": "_hashValue",
          "type": "string"
        }
      ],
      "name": "addDiploma",
      "outputs": [],
      "payable": false,
      "stateMutability": "nonpayable",
      "type": "function"
    }
  ],
  "bytecode": "0x60806040526000600160006101000a81548160ff02191690831515021790555034801561002b57600080fd5b5061111e8061003b6000396000f3fe608060405234801561001057600080fd5b50600436106100415760003560e01c80631a4c67501461004657806356ca623e1461035d5780639811bdeb1461041a575b600080fd5b61035b600480360360a081101561005c57600080fd5b810190808035906020019064010000000081111561007957600080fd5b82018360208201111561008b57600080fd5b803590602001918460018302840111640100000000831117156100ad57600080fd5b91908080601f016020809104026020016040519081016040528093929190818152602001838380828437600081840152601f19601f8201169050808301925050505050505091929192908035906020019064010000000081111561011057600080fd5b82018360208201111561012257600080fd5b8035906020019184600183028401116401000000008311171561014457600080fd5b91908080601f016020809104026020016040519081016040528093929190818152602001838380828437600081840152601f19601f820116905080830192505050505050509192919290803590602001906401000000008111156101a757600080fd5b8201836020820111156101b957600080fd5b803590602001918460018302840111640100000000831117156101db57600080fd5b91908080601f016020809104026020016040519081016040528093929190818152602001838380828437600081840152601f19601f8201169050808301925050505050505091929192908035906020019064010000000081111561023e57600080fd5b82018360208201111561025057600080fd5b8035906020019184600183028401116401000000008311171561027257600080fd5b91908080601f016020809104026020016040519081016040528093929190818152602001838380828437600081840152601f19601f820116905080830192505050505050509192919290803590602001906401000000008111156102d557600080fd5b8201836020820111156102e757600080fd5b8035906020019184600183028401116401000000008311171561030957600080fd5b91908080601f016020809104026020016040519081016040528093929190818152602001838380828437600081840152601f19601f820116905080830192505050505050509192919290505050610691565b005b61039f6004803603602081101561037357600080fd5b81019080803573ffffffffffffffffffffffffffffffffffffffff169060200190929190505050610bdc565b6040518080602001828103825283818151815260200191508051906020019080838360005b838110156103df5780820151818401526020810190506103c4565b50505050905090810190601f16801561040c5780820380516001836020036101000a031916815260200191505b509250505060405180910390f35b6104666004803603604081101561043057600080fd5b81019080803573ffffffffffffffffffffffffffffffffffffffff16906020019092919080359060200190929190505050610ca3565b60405180806020018060200180602001806020018060200186810386528b818151815260200191508051906020019080838360005b838110156104b657808201518184015260208101905061049b565b50505050905090810190601f1680156104e35780820380516001836020036101000a031916815260200191505b5086810385528a818151815260200191508051906020019080838360005b8381101561051c578082015181840152602081019050610501565b50505050905090810190601f1680156105495780820380516001836020036101000a031916815260200191505b50868103845289818151815260200191508051906020019080838360005b83811015610582578082015181840152602081019050610567565b50505050905090810190601f1680156105af5780820380516001836020036101000a031916815260200191505b50868103835288818151815260200191508051906020019080838360005b838110156105e85780820151818401526020810190506105cd565b50505050905090810190601f1680156106155780820380516001836020036101000a031916815260200191505b50868103825287818151815260200191508051906020019080838360005b8381101561064e578082015181840152602081019050610633565b50505050905090810190601f16801561067b5780820380516001836020036101000a031916815260200191505b509a505050505050505050505060405180910390f35b600160009054906101000a900460ff1615610714576040517f08c379a00000000000000000000000000000000000000000000000000000000081526004018080602001828103825260138152602001807f416472657361206573746520677265736974610000000000000000000000000081525060200191505060405180910390fd5b60606040518060600160405280602a81526020016110c0602a9139905061073a33610bdc565b6040516020018082805190602001908083835b60208310610770578051825260208201915060208101905060208303925061074d565b6001836020036101000a03801982511681845116808217855250505050505090500191505060405160208183030381529060405280519060200120816040516020018082805190602001908083835b602083106107e257805182526020820191506020810190506020830392506107bf565b6001836020036101000a038019825116818451168082178552505050505050905001915050604051602081830303815290604052805190602001201461083d5760018060006101000a81548160ff0219169083151502179055505b610845610feb565b6040518060a001604052808881526020018781526020018681526020018581526020018481525090506000803373ffffffffffffffffffffffffffffffffffffffff1673ffffffffffffffffffffffffffffffffffffffff168152602001908152602001600020819080600181540180825580915050906001820390600052602060002090600502016000909192909190915060008201518160000190805190602001906108f492919061101a565b50602082015181600101908051906020019061091192919061101a565b50604082015181600201908051906020019061092e92919061101a565b50606082015181600301908051906020019061094b92919061101a565b50608082015181600401908051906020019061096892919061101a565b505050503373ffffffffffffffffffffffffffffffffffffffff167f5e15d2cd34569dde9bf8eb875cf30ac572a7492ebe12f1d06a0e1c72248c64e1888888888860405180806020018060200180602001806020018060200186810386528b818151815260200191508051906020019080838360005b838110156109f95780820151818401526020810190506109de565b50505050905090810190601f168015610a265780820380516001836020036101000a031916815260200191505b5086810385528a818151815260200191508051906020019080838360005b83811015610a5f578082015181840152602081019050610a44565b50505050905090810190601f168015610a8c5780820380516001836020036101000a031916815260200191505b50868103845289818151815260200191508051906020019080838360005b83811015610ac5578082015181840152602081019050610aaa565b50505050905090810190601f168015610af25780820380516001836020036101000a031916815260200191505b50868103835288818151815260200191508051906020019080838360005b83811015610b2b578082015181840152602081019050610b10565b50505050905090810190601f168015610b585780820380516001836020036101000a031916815260200191505b50868103825287818151815260200191508051906020019080838360005b83811015610b91578082015181840152602081019050610b76565b50505050905090810190601f168015610bbe5780820380516001836020036101000a031916815260200191505b509a505050505050505050505060405180910390a250505050505050565b60608060146040519080825280601f01601f191660200182016040528015610c135781602001600182028038833980820191505090505b50905060008090505b6014811015610c99578060130360080260020a8473ffffffffffffffffffffffffffffffffffffffff1681610c4d57fe5b0460f81b828281518110610c5d57fe5b60200101907effffffffffffffffffffffffffffffffffffffffffffffffffffffffffffff1916908160001a9053508080600101915050610c1c565b5080915050919050565b60006020528160005260406000208181548110610cbc57fe5b906000526020600020906005020160009150915050806000018054600181600116156101000203166002900480601f016020809104026020016040519081016040528092919081815260200182805460018160011615610100020316600290048015610d695780601f10610d3e57610100808354040283529160200191610d69565b820191906000526020600020905b815481529060010190602001808311610d4c57829003601f168201915b505050505090806001018054600181600116156101000203166002900480601f016020809104026020016040519081016040528092919081815260200182805460018160011615610100020316600290048015610e075780601f10610ddc57610100808354040283529160200191610e07565b820191906000526020600020905b815481529060010190602001808311610dea57829003601f168201915b505050505090806002018054600181600116156101000203166002900480601f016020809104026020016040519081016040528092919081815260200182805460018160011615610100020316600290048015610ea55780601f10610e7a57610100808354040283529160200191610ea5565b820191906000526020600020905b815481529060010190602001808311610e8857829003601f168201915b505050505090806003018054600181600116156101000203166002900480601f016020809104026020016040519081016040528092919081815260200182805460018160011615610100020316600290048015610f435780601f10610f1857610100808354040283529160200191610f43565b820191906000526020600020905b815481529060010190602001808311610f2657829003601f168201915b505050505090806004018054600181600116156101000203166002900480601f016020809104026020016040519081016040528092919081815260200182805460018160011615610100020316600290048015610fe15780601f10610fb657610100808354040283529160200191610fe1565b820191906000526020600020905b815481529060010190602001808311610fc457829003601f168201915b5050505050905085565b6040518060a0016040528060608152602001606081526020016060815260200160608152602001606081525090565b828054600181600116156101000203166002900490600052602060002090601f016020900481019282601f1061105b57805160ff1916838001178555611089565b82800160010185558215611089579182015b8281111561108857825182559160200191906001019061106d565b5b509050611096919061109a565b5090565b6110bc91905b808211156110b85760008160009055506001016110a0565b5090565b9056fe307846453731333039383746393738343666463064343734366439613141383135354462384630326437a265627a7a723158208f811902ea464b5bf3723e926631e58fd3bb5ab6ec4adfbded7077f76cfbe09d64736f6c63430005100032",
  "source": "pragma solidity >=0.5.12 <0.7.0;\r\n\r\ncontract DiplomaStore {\r\n    struct Diploma {\r\n        string cnp; //cnp-ul studentului\r\n        string city; //oras universitate\r\n        string emailStudent; //email student\r\n        string degree; //tipul de diploma\r\n        string hashValue; //valoarea returnata de IPFS pe care o vom adauga pe Blockchain pe langa informatiile respective\r\n    }\r\n    mapping(address => Diploma[]) public university; //mapam diploma de universitate\r\n\r\n    bool stopped = false;\r\n\r\n    event LogDiplomaAdded(\r\n        address indexed _university,\r\n        string _cnp,\r\n        string _city,\r\n        string _emailStudent,\r\n        string _degree,\r\n        string _hashValue\r\n    );\r\n\r\n    //bool private stopped = false;\r\n    event LogEmergencyStop(\r\n        address indexed _university,\r\n        bool _stop\r\n    );\r\n\r\n     modifier stopInEmergency {\r\n        require(!stopped, \"Adresa este gresita\");\r\n        _;\r\n    }\r\n    //mapping(address => bool) public addressList;\r\n\r\n    function toString(address x) public returns (string memory) {\r\n        bytes memory b = new bytes(20);\r\n        for (uint i = 0; i < 20; i++)\r\n            b[i] = byte(uint8(uint(x) / (2**(8*(19 - i)))));\r\n        return string(b);\r\n    }\r\n\r\n    function addDiploma(string memory _cnp, string memory _city, string memory _emailStudent, string memory _degree, string memory _hashValue) public stopInEmergency{\r\n        //string memory senderAddress = toString(msg.sender);\r\n        // string[7] memory addresses = ['0xFE7130987F97846fF0d4746d9a1A8155Db8F02d7',\r\n        //                   '0xBD60268625Aa582b22bb21b3F3CDC165B6962De3',\r\n        //                   '0xaEdbd61D177F170637475e7114C5A2F7C949D5bf',\r\n        //                   '0xEfB5715Ad1D47F95FF0F4a43468Ad670Dba59bc8',\r\n        //                   '0x571D5E7F972317Abfe7832c9B4571724077730F6',\r\n        //                   '0x87d12f9070D28147caEe3FbD4C7307BCf471ECAF',\r\n        //                   '0x9c03eb69F9c49E54dE74Fd02551bf4a5E5733F45'];\r\n\r\n        string memory addres = '0xFE7130987F97846fF0d4746d9a1A8155Db8F02d7';\r\n        if(keccak256(abi.encodePacked(addres)) != keccak256(abi.encodePacked(toString(msg.sender)))){\r\n            stopped = true;\r\n        }\r\n\r\n        // for(uint i = 0; i < addresses.length; i++){\r\n        //     if(keccak256(abi.encodePacked(addresses[i])) != keccak256(abi.encodePacked(toString(msg.sender)))){\r\n        //         stopped = true;\r\n\r\n        //     }\r\n        // }\r\n        Diploma memory diploma = Diploma(_cnp, _city, _emailStudent, _degree, _hashValue);\r\n        \r\n        university[msg.sender].push(diploma);\r\n\r\n        emit LogDiplomaAdded(msg.sender, _cnp, _city, _emailStudent, _degree, _hashValue);\r\n\r\n    }\r\n\r\n}",
  "sourcePath": "F:\\FACULTATE\\AN4\\LicentaNodeJS\\contracts\\DiplomaStore.sol",
  "compiler": {
    "name": "solc",
    "version": "0.5.16+commit.9c3226ce.Emscripten.clang"
  },
  "schemaVersion": "3.2.0",
  "updatedAt": "2020-06-14T12:26:05.239Z",
  "networkType": "ethereum",
  "devdoc": {
    "methods": {}
  },
  "userdoc": {
    "methods": {}
  }
}