{
  "contractName": "DiplomaStore",
  "abi": [
    {
      "anonymous": false,
      "inputs": [
        {
          "indexed": true,
          "internalType": "address",
          "name": "_university",
          "type": "address"
        },
        {
          "indexed": false,
          "internalType": "string",
          "name": "_cnp",
          "type": "string"
        },
        {
          "indexed": false,
          "internalType": "string",
          "name": "_city",
          "type": "string"
        },
        {
          "indexed": false,
          "internalType": "string",
          "name": "_emailStudent",
          "type": "string"
        },
        {
          "indexed": false,
          "internalType": "string",
          "name": "_degree",
          "type": "string"
        },
        {
          "indexed": false,
          "internalType": "string",
          "name": "_hashValue",
          "type": "string"
        }
      ],
      "name": "LogDiplomaAdded",
      "type": "event"
    },
    {
      "anonymous": false,
      "inputs": [
        {
          "indexed": true,
          "internalType": "address",
          "name": "_university",
          "type": "address"
        },
        {
          "indexed": false,
          "internalType": "bool",
          "name": "_stop",
          "type": "bool"
        }
      ],
      "name": "LogEmergencyStop",
      "type": "event"
    },
    {
      "constant": true,
      "inputs": [
        {
          "internalType": "address",
          "name": "",
          "type": "address"
        },
        {
          "internalType": "uint256",
          "name": "",
          "type": "uint256"
        }
      ],
      "name": "university",
      "outputs": [
        {
          "internalType": "string",
          "name": "cnp",
          "type": "string"
        },
        {
          "internalType": "string",
          "name": "city",
          "type": "string"
        },
        {
          "internalType": "string",
          "name": "emailStudent",
          "type": "string"
        },
        {
          "internalType": "string",
          "name": "degree",
          "type": "string"
        },
        {
          "internalType": "string",
          "name": "hashValue",
          "type": "string"
        }
      ],
      "payable": false,
      "stateMutability": "view",
      "type": "function"
    },
    {
      "constant": false,
      "inputs": [
        {
          "internalType": "string",
          "name": "_cnp",
          "type": "string"
        },
        {
          "internalType": "string",
          "name": "_city",
          "type": "string"
        },
        {
          "internalType": "string",
          "name": "_emailStudent",
          "type": "string"
        },
        {
          "internalType": "string",
          "name": "_degree",
          "type": "string"
        },
        {
          "internalType": "string",
          "name": "_hashValue",
          "type": "string"
        }
      ],
      "name": "addDiploma",
      "outputs": [],
      "payable": false,
      "stateMutability": "nonpayable",
      "type": "function"
    }
  ],
  "bytecode": "0x60806040526000600160006101000a81548160ff021916908315150217905550336001806101000a81548173ffffffffffffffffffffffffffffffffffffffff021916908373ffffffffffffffffffffffffffffffffffffffff16021790555034801561006b57600080fd5b50610db88061007b6000396000f3fe608060405234801561001057600080fd5b50600436106100365760003560e01c80631a4c67501461003b5780639811bdeb14610352575b600080fd5b610350600480360360a081101561005157600080fd5b810190808035906020019064010000000081111561006e57600080fd5b82018360208201111561008057600080fd5b803590602001918460018302840111640100000000831117156100a257600080fd5b91908080601f016020809104026020016040519081016040528093929190818152602001838380828437600081840152601f19601f8201169050808301925050505050505091929192908035906020019064010000000081111561010557600080fd5b82018360208201111561011757600080fd5b8035906020019184600183028401116401000000008311171561013957600080fd5b91908080601f016020809104026020016040519081016040528093929190818152602001838380828437600081840152601f19601f8201169050808301925050505050505091929192908035906020019064010000000081111561019c57600080fd5b8201836020820111156101ae57600080fd5b803590602001918460018302840111640100000000831117156101d057600080fd5b91908080601f016020809104026020016040519081016040528093929190818152602001838380828437600081840152601f19601f8201169050808301925050505050505091929192908035906020019064010000000081111561023357600080fd5b82018360208201111561024557600080fd5b8035906020019184600183028401116401000000008311171561026757600080fd5b91908080601f016020809104026020016040519081016040528093929190818152602001838380828437600081840152601f19601f820116905080830192505050505050509192919290803590602001906401000000008111156102ca57600080fd5b8201836020820111156102dc57600080fd5b803590602001918460018302840111640100000000831117156102fe57600080fd5b91908080601f016020809104026020016040519081016040528093929190818152602001838380828437600081840152601f19601f8201169050808301925050505050505091929192905050506105c9565b005b61039e6004803603604081101561036857600080fd5b81019080803573ffffffffffffffffffffffffffffffffffffffff16906020019092919080359060200190929190505050610967565b60405180806020018060200180602001806020018060200186810386528b818151815260200191508051906020019080838360005b838110156103ee5780820151818401526020810190506103d3565b50505050905090810190601f16801561041b5780820380516001836020036101000a031916815260200191505b5086810385528a818151815260200191508051906020019080838360005b83811015610454578082015181840152602081019050610439565b50505050905090810190601f1680156104815780820380516001836020036101000a031916815260200191505b50868103845289818151815260200191508051906020019080838360005b838110156104ba57808201518184015260208101905061049f565b50505050905090810190601f1680156104e75780820380516001836020036101000a031916815260200191505b50868103835288818151815260200191508051906020019080838360005b83811015610520578082015181840152602081019050610505565b50505050905090810190601f16801561054d5780820380516001836020036101000a031916815260200191505b50868103825287818151815260200191508051906020019080838360005b8381101561058657808201518184015260208101905061056b565b50505050905090810190601f1680156105b35780820380516001836020036101000a031916815260200191505b509a505050505050505050505060405180910390f35b6105d1610caf565b6040518060a001604052808781526020018681526020018581526020018481526020018381525090506000803373ffffffffffffffffffffffffffffffffffffffff1673ffffffffffffffffffffffffffffffffffffffff16815260200190815260200160002081908060018154018082558091505090600182039060005260206000209060050201600090919290919091506000820151816000019080519060200190610680929190610cde565b50602082015181600101908051906020019061069d929190610cde565b5060408201518160020190805190602001906106ba929190610cde565b5060608201518160030190805190602001906106d7929190610cde565b5060808201518160040190805190602001906106f4929190610cde565b505050503373ffffffffffffffffffffffffffffffffffffffff167f5e15d2cd34569dde9bf8eb875cf30ac572a7492ebe12f1d06a0e1c72248c64e1878787878760405180806020018060200180602001806020018060200186810386528b818151815260200191508051906020019080838360005b8381101561078557808201518184015260208101905061076a565b50505050905090810190601f1680156107b25780820380516001836020036101000a031916815260200191505b5086810385528a818151815260200191508051906020019080838360005b838110156107eb5780820151818401526020810190506107d0565b50505050905090810190601f1680156108185780820380516001836020036101000a031916815260200191505b50868103845289818151815260200191508051906020019080838360005b83811015610851578082015181840152602081019050610836565b50505050905090810190601f16801561087e5780820380516001836020036101000a031916815260200191505b50868103835288818151815260200191508051906020019080838360005b838110156108b757808201518184015260208101905061089c565b50505050905090810190601f1680156108e45780820380516001836020036101000a031916815260200191505b50868103825287818151815260200191508051906020019080838360005b8381101561091d578082015181840152602081019050610902565b50505050905090810190601f16801561094a5780820380516001836020036101000a031916815260200191505b509a505050505050505050505060405180910390a2505050505050565b6000602052816000526040600020818154811061098057fe5b906000526020600020906005020160009150915050806000018054600181600116156101000203166002900480601f016020809104026020016040519081016040528092919081815260200182805460018160011615610100020316600290048015610a2d5780601f10610a0257610100808354040283529160200191610a2d565b820191906000526020600020905b815481529060010190602001808311610a1057829003601f168201915b505050505090806001018054600181600116156101000203166002900480601f016020809104026020016040519081016040528092919081815260200182805460018160011615610100020316600290048015610acb5780601f10610aa057610100808354040283529160200191610acb565b820191906000526020600020905b815481529060010190602001808311610aae57829003601f168201915b505050505090806002018054600181600116156101000203166002900480601f016020809104026020016040519081016040528092919081815260200182805460018160011615610100020316600290048015610b695780601f10610b3e57610100808354040283529160200191610b69565b820191906000526020600020905b815481529060010190602001808311610b4c57829003601f168201915b505050505090806003018054600181600116156101000203166002900480601f016020809104026020016040519081016040528092919081815260200182805460018160011615610100020316600290048015610c075780601f10610bdc57610100808354040283529160200191610c07565b820191906000526020600020905b815481529060010190602001808311610bea57829003601f168201915b505050505090806004018054600181600116156101000203166002900480601f016020809104026020016040519081016040528092919081815260200182805460018160011615610100020316600290048015610ca55780601f10610c7a57610100808354040283529160200191610ca5565b820191906000526020600020905b815481529060010190602001808311610c8857829003601f168201915b5050505050905085565b6040518060a0016040528060608152602001606081526020016060815260200160608152602001606081525090565b828054600181600116156101000203166002900490600052602060002090601f016020900481019282601f10610d1f57805160ff1916838001178555610d4d565b82800160010185558215610d4d579182015b82811115610d4c578251825591602001919060010190610d31565b5b509050610d5a9190610d5e565b5090565b610d8091905b80821115610d7c576000816000905550600101610d64565b5090565b9056fea265627a7a72315820b6bbbde35a309eb87a7046e67c4f8bf350c65748efbbf1c13da892a013d0602064736f6c63430005100032",
  "source": "pragma solidity >=0.5.12 <0.7.0;\r\n\r\ncontract DiplomaStore {\r\n    struct Diploma {\r\n        string cnp; //cnp-ul studentului\r\n        string city; //oras universitate\r\n        string emailStudent; //email student\r\n        string degree; //tipul de diploma\r\n        string hashValue; //valoarea returnata de IPFS pe care o vom adauga pe Blockchain pe langa informatiile respective\r\n    }\r\n    mapping(address => Diploma[]) public university; //mapam diploma de universitate\r\n\r\n    bool stopped = false;\r\n\r\n    event LogDiplomaAdded(\r\n        address indexed _university,\r\n        string _cnp,\r\n        string _city,\r\n        string _emailStudent,\r\n        string _degree,\r\n        string _hashValue\r\n    );\r\n\r\n    //bool private stopped = false;\r\n    event LogEmergencyStop(\r\n        address indexed _university,\r\n        bool _stop\r\n    );\r\n\r\n    //  modifier stopInEmergency {\r\n    //     require(!stopped, \"Adresa este gresita\");\r\n    //     _;\r\n    // }\r\n    //mapping(address => bool) public addressList;\r\n\r\n    // function toString(address x) public returns (string memory) {\r\n    //     bytes memory b = new bytes(20);\r\n    //     for (uint i = 0; i < 20; i++)\r\n    //         b[i] = byte(uint8(uint(x) / (2**(8*(19 - i)))));\r\n    //     return string(b);\r\n    // }\r\n    address owner = msg.sender;\r\n    function addDiploma(string memory _cnp, string memory _city, string memory _emailStudent, string memory _degree, string memory _hashValue) public {\r\n        //string memory senderAddress = toString(msg.sender);\r\n        // string[7] memory addresses = ['0xFE7130987F97846fF0d4746d9a1A8155Db8F02d7',\r\n        //                   '0xBD60268625Aa582b22bb21b3F3CDC165B6962De3',\r\n        //                   '0xaEdbd61D177F170637475e7114C5A2F7C949D5bf',\r\n        //                   '0xEfB5715Ad1D47F95FF0F4a43468Ad670Dba59bc8',\r\n        //                   '0x571D5E7F972317Abfe7832c9B4571724077730F6',\r\n        //                   '0x87d12f9070D28147caEe3FbD4C7307BCf471ECAF',\r\n        //                   '0x9c03eb69F9c49E54dE74Fd02551bf4a5E5733F45'];\r\n        //log0(bytes32(uint256(msg.sender)));\r\n        //string memory addres = '0xFE7130987F97846fF0d4746d9a1A8155Db8F02d7';\r\n        \r\n        //require(((keccak256(abi.encodePacked(toString(owner))))==(keccak256(abi.encodePacked(addres)))), \"Adresa este gresita\");\r\n        \r\n\r\n        // for(uint i = 0; i < addresses.length; i++){\r\n        //     if(keccak256(abi.encodePacked(addresses[i])) != keccak256(abi.encodePacked(toString(msg.sender)))){\r\n        //         stopped = true;\r\n\r\n        //     }\r\n        // }\r\n        Diploma memory diploma = Diploma(_cnp, _city, _emailStudent, _degree, _hashValue);\r\n        \r\n        university[msg.sender].push(diploma);\r\n\r\n        emit LogDiplomaAdded(msg.sender, _cnp, _city, _emailStudent, _degree, _hashValue);\r\n\r\n    }\r\n\r\n}",
  "sourcePath": "F:\\FACULTATE\\AN4\\LicentaNodeJS\\contracts\\DiplomaStore.sol",
  "compiler": {
    "name": "solc",
    "version": "0.5.16+commit.9c3226ce.Emscripten.clang"
  },
  "schemaVersion": "3.2.0",
  "updatedAt": "2020-06-18T19:02:36.328Z",
  "networkType": "ethereum",
  "devdoc": {
    "methods": {}
  },
  "userdoc": {
    "methods": {}
  }
}